:100000000C9435000C945D000C945D000C945D0024
:100010000C945D000C945D000C945D000C945D00EC
:100020000C945D000C945D000C945D000C945D00DC
:100030000C945D000C945D000C945D000C945D00CC
:100040000C9460090C945D000C942E090C94080922
:100050000C945D000C945D000C945D000C945D00AC
:100060000C945D000C945D00AA0911241FBECFEF13
:10007000D8E0DEBFCDBF11E0A0E0B1E0E8E6F9E1F5
:1000800002C005900D92A036B107D9F724E0A0E692
:10009000B1E001C01D92A834B207E1F710E0C5E35A
:1000A000D0E004C02197FE010E94A70CC433D10701
:1000B000C9F70E94F8090C94B20C0C94000020E0DF
:1000C000DC0160FF03C001C02D932D936250E0F767
:1000D0007040D0F70895CF93DF93C0915203D09131
:1000E0005303209789F08A819B81009749F02D85E1
:1000F0003E85B901660F771F620F731F0E945F0074
:100100000C80DD81C02DEDCFDF91CF910895AF92AE
:10011000BF92CF92DF92EF92FF920F931F93CF93F4
:10012000DF936C017B018B01040F151FEB015E0156
:10013000AE18BF08C017D10759F06991D601ED91EB
:10014000FC910190F081E02DC6010995892B79F78A
:10015000C501DF91CF911F910F91FF90EF90DF903C
:10016000CF90BF90AF90089580E991E00895FC0191
:10017000538D448D252F30E0842F90E0821B930B0C
:10018000541710F0CF96089501970895FC01918DB2
:10019000828D981761F0A28DAE0FBF2FB11D5D96B5
:1001A0008C91928D9F5F9F73928F90E008958FEF57
:1001B0009FEF0895FC01918D828D981731F0828D0B
:1001C000E80FF11D858D90E008958FEF9FEF089562
:1001D000FC01918D228D892F90E0805C9F4F821BC6
:1001E00091098F739927089588E593E00E94E800AC
:1001F00021E0892B09F420E0822F089580E090E02F
:10020000892B29F00E94F40081110C9400000895BC
:10021000FC01A48DA80FB92FB11DA35ABF4F2C917B
:10022000848D90E001968F739927848FA689B78972
:100230002C93A089B1898C91837080648C93938D69
:10024000848D981306C00288F389E02D80818F7D0C
:1002500080830895EF92FF920F931F93CF93DF93C4
:10026000EC0181E0888F9B8D8C8D98131AC0E889F2
:10027000F989808185FF15C09FB7F894EE89FF89C1
:100280006083E889F98980818370806480839FBF5F
:1002900081E090E0DF91CF911F910F91FF90EF905F
:1002A0000895F62E0B8D10E00F5F1F4F0F7311276F
:1002B000E02E8C8D8E110CC00FB607FCFACFE889AA
:1002C000F989808185FFF5CFCE010E940801F1CF29
:1002D000EB8DEC0FFD2FF11DE35AFF4FF0829FB71E
:1002E000F8940B8FEA89FB8980818062CFCFCF930E
:1002F000DF93EC01888D8823B9F0AA89BB89E8894E
:10030000F9898C9185FD03C0808186FD0DC00FB6F3
:1003100007FCF7CF8C9185FFF2CF808185FFEDCF71
:10032000CE010E940801E9CFDF91CF9108953FB738
:10033000F89480916B0190916C01A0916D01B09146
:100340006E0126B5A89B05C02F3F19F00196A11D8F
:10035000B11D3FBFBA2FA92F982F8827BC01CD010F
:10036000620F711D811D911D42E0660F771F881F6E
:10037000991F4A95D1F708958F929F92AF92BF929D
:10038000CF92DF92EF92FF924B015C010E949701A6
:100390006B017C010E9497016C197D098E099F09F0
:1003A000683E734081059105A8F321E0821A910807
:1003B000A108B10888EEC80E83E0D81EE11CF11C2C
:1003C00081149104A104B10429F7FF90EF90DF900C
:1003D000CF90BF90AF909F908F9008952FB7F894D3
:1003E00060916701709168018091690190916A0143
:1003F0002FBF08954F925F926F927F929F92AF921C
:10040000BF92CF92DF92EF92FF920F931F93CF9301
:10041000DF9300D01F92CDB7DEB7F0903B04809100
:100420003E0490913F04A0914004B0914104892B77
:100430008A2B8B2BD9F00E949701009154031091C5
:1004400055032091560330915703601B710B820BAB
:10045000930B00913E0410913F0420914004309191
:1004600041046017710782079307C8F20E94970141
:1004700060935403709355038093560390935703EE
:10048000E0914604F0914704309759F040914204BE
:100490005091430460914404709145048F2D099557
:1004A000F82E00915203109153034F2C512C712CB4
:1004B000612C0115110509F45EC0D8011C96EC9061
:1004C0001C9780913C0490913D048436910510F472
:1004D0001C961C92D801ED91FC91A280B3801982E8
:1004E0001A821B82FF2089F1F8013696D12CC12C8B
:1004F0002191222319F19280992001F130E050E0FE
:1005000040E02F5F3F4F4F4F5F4FC301B2010E944A
:10051000050C9B01AC01892D90E0B0E0A0E0BC018E
:10052000CD016F5F7F4F8F4F9F4F0E94050CA1E061
:10053000B0E0AC0FBD1FAC0DBD1D8C93BFEFCB1A4F
:10054000DB0A83E0C816D10499F6D8011D964D91B7
:100550005C911E9712966D917C919E012F5F3F4F8B
:10056000C801F5010995D8011C96EC921C971496C8
:100570000D911C919ECF80915003909151038C015D
:100580000F5F1F4F109351030093500349978CF155
:100590000E94EE019B01AC0188EE93E0089FB00140
:1005A000099F700D189F700D1124072E000C880BE9
:1005B000990BC0904C03D0904D03E0904E03F09007
:1005C0004F032C193D094E095F090E94150C309309
:1005D0003D0420933C0410925103109250030E945A
:1005E000EE0160934C0370934D0380934E03909300
:1005F0004F030F900F900F90DF91CF911F910F91AC
:10060000FF90EF90DF90CF90BF90AF909F907F9042
:100610006F905F904F900895DA01FC0190E080E0C8
:100620002C91208311962C911197218312962C9155
:1006300012972283019633966817790789F70895F0
:100640000F931F93CF93DF93209165012F5F322F7C
:1006500037703093650120FF2BC020E831FD206406
:10066000347009F02062205FFC01EC01239600E069
:1006700011E06485662329F070E0C8010E94780CBF
:100680006F5F6187322F369F030E30E0311D1124DA
:10069000311110C01682662311F0615061873196C6
:1006A000EC17FD0731F7DF91CF911F910F9108955E
:1006B00020E0D4CF31503683EECF4F925F926F92CD
:1006C0007F928F92AF92BF92CF92DF92EF920F9371
:1006D0001F93CF93DF933C01EB010E949701F3013D
:1006E00027853089621B730B6A307105B0F3F8946B
:1006F000E881F9817BB170646BB16F7B6BB9CA849F
:100700008F812C2D281B822F2F83BF844A805B80F2
:100710001D850C85DE841F5F0F5FD3949E81388515
:10072000A984EB844181D20120E0C32F522F322FC4
:100730003181442788943111380F08F43FEF8195B7
:10074000889410FD430F4795889411FD430F4795FA
:10075000889412FD430F4795889413FD430F4795E6
:10076000889414FD430F4795889415FD430F4795D2
:10077000889416FD430F4795889417FD430F4795BE
:100780008894232F1111242F8C0D422F002C7BB91C
:1007900000C047FF6BB930812227889400C000C099
:1007A000002C6BB93111390F00C0002C7BB900C08F
:1007B00046FF6BB908F43FEF9195889400C000C0E4
:1007C000002C6BB900FD230F00C0002C7BB900C0CA
:1007D00045FF6BB92795889401FD230F00C000C029
:1007E000002C6BB92795889400C0002C7BB900C001
:1007F00044FF6BB902FD230F2795889400C000C009
:10080000002C6BB903FD230F00C0002C7BB900C086
:1008100043FF6BB92795889404FD230F00C000C0E7
:10082000002C6BB92795889400C0002C7BB900C0C0
:1008300042FF6BB905FD230F2795889400C000C0C7
:10084000002C6BB906FD230F00C0002C7BB900C043
:1008500041FF6BB92795889407FD230F00C000C0A6
:10086000002C6BB92795889400C0002C7BB900C080
:1008700040FF6BB9432F0111422F9A0D00C000C0F9
:10088000002C6BB900C000C0002C7BB900C047FF32
:100890006BB932812227889400C000C0002C6BB94C
:1008A00031113C0F00C0002C7BB900C046FF6BB972
:1008B00008F43FEFEB0DF11D00C000C0002C6BB938
:1008C000D0FC230F00C0002C7BB900C045FF6BB9E2
:1008D00027958894D1FC230F00C000C0002C6BB971
:1008E0002795889400C0002C7BB900C044FF6BB9E9
:1008F000D2FC230F2795889400C000C0002C6BB950
:10090000D3FC230F00C0002C7BB900C043FF6BB9A0
:1009100027958894D4FC230F00C000C0002C6BB92D
:100920002795889400C0002C7BB900C042FF6BB9AA
:10093000D5FC230F2795889400C000C0002C6BB90C
:10094000D6FC230F00C0002C7BB900C041FF6BB95F
:1009500027958894D7FC230F00C000C0002C6BB9EA
:100960002795889400C0002C7BB900C040FF6BB96C
:10097000432FD110422FC19500C000C0002C6BB98D
:10098000CE0D00C000C07BB900C047FF6BB93181FC
:100990002227889400C000C0002C6BB93111380F99
:1009A00000C0002C7BB900C046FF6BB908F43FEFD4
:1009B0008195889400C000C0002C6BB910FD230FF6
:1009C00000C0002C7BB900C045FF6BB92795889407
:1009D00011FD230F00C000C0002C6BB9279588942F
:1009E00000C0002C7BB900C044FF6BB912FD230F7F
:1009F0002795889400C000C0002C6BB913FD230F0D
:100A000000C0002C7BB900C043FF6BB927958894C8
:100A100014FD230F00C000C0002C6BB927958894EB
:100A200000C0002C7BB900C042FF6BB915FD230F3D
:100A30002795889400C000C0002C6BB916FD230FC9
:100A400000C0002C7BB900C041FF6BB9279588948A
:100A500017FD230F00C000C0002C6BB927958894A8
:100A600000C0002C7BB900C040FF6BB9432F1111AF
:100A7000422F8C0D00C000C0002C6BB9119709F0FB
:100A800086CE20EE31E0D2010E948C0CDC01CB013D
:100A9000F4E0B695A79597958795FA95D1F730E04C
:100AA00020E0B901EAE94E9E040C611D5E9E600DD6
:100AB000711D1124650D711D860F971FA11DB11D9C
:100AC000893E43E09407A105B10508F434C0885E6F
:100AD0009340A109B10942E0B695A79597958795EE
:100AE0004A95D1F747E0849F080E211D949F200D61
:100AF000311D1124290F311D6091640170E0860FB2
:100B0000971F820F931F4091670150916801609178
:100B1000690170916A01292F3327420F531F611D0C
:100B2000711D409367015093680160936901709350
:100B30006A018093640178940E949701F301708B9D
:100B40006787DF91CF911F910F91EF90DF90CF904A
:100B5000BF90AF908F907F906F905F904F9008956F
:100B6000569A08950F931F93CF93DF93CDB7DEB7B7
:100B700062970FB6F894DEBF0FBECDBF8C01F901AE
:100B8000DC011C968C917A8369835C834B835E8342
:100B90004D8390819D8791819E8792819F8781302F
:100BA000F1F4CE0101960E94200383E0888B1A8A1B
:100BB000198AD801ED91FC910484F585E02DBE01E0
:100BC0006F5F7F4FC801099562960FB6F894DEBF3C
:100BD0000FBECDBFDF91CF911F910F9108951C865D
:100BE0001B861A86198618861F82DFCF0F931F93E4
:100BF000CF93DF93CDB7DEB762970FB6F894DEBF21
:100C00000FBECDBF8C01F901DC011C968C917A835B
:100C100069835C834B835E834D8390819D87918143
:100C20009E8792819F878130E9F4CE0101960E94D0
:100C30002003188A1A8A198AD801ED91FC9104843C
:100C4000F585E02DBE016F5F7F4FC8010995629663
:100C50000FB6F894DEBF0FBECDBFDF91CF911F91CD
:100C60000F9108951C861B861A86198618861F8286
:100C7000E0CF90E080E00895FC0185859685089599
:100C8000CF93DF9300D000D000D0CDB7DEB7AB015B
:100C90001C821D821E82DC01ED91FC910190F0818D
:100CA000E02D19821A821B829E012F5F3F4FBE01E9
:100CB0006C5F7F4F099526960FB6F894DEBF0FBE86
:100CC000CDBFDF91CF910895FC0101900020E9F79D
:100CD0003197AF01481B590BBC0188E593E00C9498
:100CE00087008F929F92AF92BF920F931F93CF93E3
:100CF000DF93CDB7DEB7A1970FB6F894DEBF0FBE76
:100D0000CDBF19A2423008F44AE08E010F5D1F4F9B
:100D1000842E912CB12CA12CA50194010E94150CBC
:100D2000E62FB901CA01EA30F4F4E05DD801EE9390
:100D30008D01232B242B252B79F790E080E0109751
:100D400019F0CD010E946406A1960FB6F894DEBF9B
:100D50000FBECDBFDF91CF911F910F91BF90AF908C
:100D60009F908F900895E95CE1CF0E94AD0CCF93E6
:100D7000DF93CDB7DEB7CD58D3400FB6F894DEBFC2
:100D80000FBECDBF0E94EE01672B682B692B09F4C3
:100D9000E3C00E94EE010091600110916101209179
:100DA000620130916301601771078207930708F4AD
:100DB00026C2009160011091610120916201309181
:100DC00063016B017C01C01AD10AE20AF30A9701A0
:100DD00086010A3F11052105310508F4C5C060935D
:100DE000600170936101809362019093630184EFCD
:100DF00091E0A0E0B0E08093030490930404A093FA
:100E00000504B0930604109207041092080410928F
:100E1000090410920A048091FB039091FC03A091B5
:100E2000FD03B091FE038093FF0390930004A09311
:100E30000104B09302040E94EE016093FB037093DF
:100E4000FC038093FD039093FE030E94EE016093E8
:100E5000F7037093F8038093F9039093FA030E94C9
:100E6000EE016B017C0188E391E00E9464064AE098
:100E700061E070E080E090E00E9471068FE391E015
:100E80000E9464064AE0C701B6010E94710681E42F
:100E900091E00E9464068091FB039091FC03A09175
:100EA000FD03B091FE03A7019601281B390B4A0BE5
:100EB0005B0BCA01B9014AE00E94710681E491E02E
:100EC0000E9464066091FB037091FC038091FD0316
:100ED0009091FE030091FF03109100042091010402
:100EE00030910204601B710B820B930B4AE00E944D
:100EF000710683E491E00E9464060E94EE014AE0DC
:100F00000E94710685E491E00E9464068CE491E001
:100F10000E9464060E94EE016B017C014B015C01A2
:100F200035E0830E911CA11CB11C0E94EE016C15D2
:100F30007D058E059F0528F086169706A806B9063A
:100F4000A0F70E94EE016093FB037093FC03809373
:100F5000FD039093FE0308C00E94EE01623071050C
:100F60008105910508F015CF0E946B00ECE42E2E50
:100F7000E3E03E2E0AE811E0FDE7CF2ED12CE12C74
:100F8000F12C0E94AD0B2B013C010E94AD0B4B01DB
:100F90005C010E94AD0BC657DC4F688379838A835E
:100FA0009B83CA58D340C301B201A70196010E9496
:100FB000370C6983C501B401A70196010E94370C63
:100FC0006A83C657DC4F688179818A819B81CA58C0
:100FD000D340A70196010E94370C6B83AE014F5F8F
:100FE0005F4F61E070E0C8010E940C030E94FA01AB
:100FF00069E170E080E090E00E94BC010D5F1F4F4E
:101000002016310609F0BDCFAE01435D5E4FC857D3
:10101000DC4F59834883C858D3406AE8C62E61E044
:10102000D62ECE01875A9D4F5C014A019E012F5F4B
:101030003F4F19017DE7472E512C612C712C0E94E6
:10104000AD0BA30192010E94370C7B01EE0CFF1C3B
:10105000F101E192F1921F010E94AD0BA3019201F7
:101060000E94370C8B01000F111FF40101931193A3
:101070004F010E94AD0BA30192010E94370C660F35
:10108000771FF501619371935F01CB57DC4FE882C5
:10109000C558D340CA57DC4F0883C658D340C957F8
:1010A000DC4F6883C758D340AE014B575C4F61E0BB
:1010B00070E0C6010E940C03F3E0CF0ED11CC857AC
:1010C000DC4FE880F980C858D3402E143F0409F063
:1010D000B6CF0E94FA0194E1492E512C612C712C5B
:1010E0008AE8A82E81E0B82E9E01275A3D4F79014B
:1010F000AE01435D5E4F6A018E010F5F1F4F0E947C
:10110000AD0BA30192010E94370CF8018080918001
:10111000860E971E918280820E94AD0BA3019201E0
:101120000E94370CF60120813181A901460F571F1B
:10113000C657DC4F59834883CA58D34051834083F4
:101140000E94AD0BA30192010E94370CF701208190
:101150003181C901860F971F91838083FFEF8F161E
:10116000910421F01CF0F80111821082C657DC4F67
:1011700028813981CA58D3402F3F310521F01CF016
:10118000F601118210828F3F910521F01CF0F701CA
:1011900011821082F7018081F6019081F80120818F
:1011A000CB57DC4F2883C558D340CA57DC4F9883B0
:1011B000C658D340C957DC4F8883C758D340AE01C7
:1011C0004B575C4F61E070E0C5010E940C030E5F5D
:1011D0001F4FF2E0CF0ED11C22E0E20EF11C33E0F3
:1011E000A30EB11C0215130509F089CF0E94FA0164
:1011F00062E370E080E090E00E94BC0171CF6093F8
:101200006001709361018093620190936301D1CD7D
:101210001F920F920FB60F9211242F933F934F936B
:101220005F936F937F938F939F93AF93BF93EF934E
:10123000FF9388E593E00E940801FF91EF91BF9131
:10124000AF919F918F917F916F915F914F913F915E
:101250002F910F900FBE0F901F9018951F920F9215
:101260000FB60F9211242F938F939F93EF93FF93B9
:10127000E0916803F09169038081E0916E03F09141
:101280006F0382FD1BC09081809171038F5F8F730C
:1012900020917203821741F0E0917103F0E0E85A67
:1012A000FC4F958F80937103FF91EF919F918F91E8
:1012B0002F910F900FBE0F901F9018958081F4CF43
:1012C0001F920F920FB60F9211242F933F938F937B
:1012D0009F93AF93BF938091670190916801A09114
:1012E0006901B0916A013091660123E0230F2D3727
:1012F00058F50196A11DB11D2093660180936701E9
:1013000090936801A0936901B0936A0180916B0189
:1013100090916C01A0916D01B0916E010196A11D9B
:10132000B11D80936B0190936C01A0936D01B093FC
:101330006E01BF91AF919F918F913F912F910F902F
:101340000FBE0F901F90189526E8230F0296A11D3F
:10135000B11DD2CFE8E5F3E01382128288EE93E06C
:10136000A0E0B0E084839583A683B7838AE291E00E
:101370009183808385EC90E09587848784EC90E06E
:101380009787868780EC90E0918B808B81EC90E052
:10139000938B828B82EC90E0958B848B86EC90E033
:1013A000978B868B118E128E138E148EE5EFF3E0E1
:1013B0001682178210861186128613861486158669
:1013C00016861786108A118A128A138A148A158A39
:1013D000EBE3F4E08FEF8083128211821486138690
:1013E0008FEF9FEFDC0187839087A187B2870895F5
:1013F000CF93DF9300D01F92CDB7DEB7789484B53A
:10140000826084BD84B5816084BD85B5826085BD00
:1014100085B5816085BD80916E00816080936E008E
:101420001092810080918100826080938100809180
:101430008100816080938100809180008160809331
:1014400080008091B10084608093B1008091B000F1
:1014500081608093B00080917A00846080937A00EC
:1014600080917A00826080937A0080917A00816016
:1014700080937A0080917A00806880937A0010923D
:10148000C10010923704109238041092390410925F
:101490003A041092F7031092F8031092F903109295
:1014A000FA030E94EE016B017C014B015C0128EB09
:1014B000820E2BE0921EA11CB11C0E94EE016C1545
:1014C0007D058E059F0528F086169706A806B906A5
:1014D000A0F768EE73E080E090E00E94BC01E0912C
:1014E0006803F091690382E08083E0916403F091E6
:1014F00065031082E0916603F091670380E18083C9
:1015000010927003E0916C03F0916D0386E080838C
:10151000E0916A03F0916B03808180618083E091A8
:101520006A03F0916B03808188608083E0916A0395
:10153000F0916B03808180688083E0916A03F09171
:101540006B0380818F7D80830E94EE016093F7039F
:101550007093F8038093F9039093FA038FE491E07A
:101560000E9464060E94EE016B017C014B015C014C
:101570008AE0880E911CA11CB11C0E94EE016C1522
:101580007D058E059F0528F086169706A806B906E4
:10159000A0F791E090930B0480918201811144C0E7
:1015A00010927401109273018FEF809377018093F2
:1015B00078018093790180937A0180937B018093F5
:1015C0007C0190937D0110927F0110927E01109218
:1015D0007601109275018091520390915303892BEB
:1015E00031F481E791E09093530380935203E091AB
:1015F0006F01F0917001309721F081E791E09583C0
:10160000848381E791E09093700180936F01109241
:1016100081011092800188E191E0909372018093A2
:10162000710181E080938201569A8AE891E090935B
:1016300074018093730186E990E090937F01809319
:101640007E0180913E0490913F04A0914004B091AE
:101650004104843C29E09207A105B10520F484EC03
:1016600099E0A0E0B0E080933E0490933F04A09303
:101670004004B09341040E946B000E94FA016AEF9B
:1016800070E080E090E00E94BC010E946B008FEF50
:1016900080933B048DE789838A838B83AE014F5F00
:1016A0005F4F66E970E08AE891E00E940C030E94B7
:1016B000FA0160ED77E080E090E00E94BC010E94BA
:1016C000B7068F929F92AF92BF92CF92DF92EF9226
:1016D000FF92CF93DF93EC01688179818A819B81AE
:1016E000611571058105910521F464E279ED8BE5C1
:1016F00097E02DE133EF41E050E00E94370C4901C3
:101700005A019B01AC01A7EAB1E40E94560C6B019F
:101710007C01ACEEB4EFA50194010E94640CC60EEE
:10172000D71EE81EF91EF7FE06C081E0C81AD108D0
:10173000E10880E8F80AC882D982EA82FB82C70100
:10174000B6019F77DF91CF91FF90EF90DF90CF9020
:10175000BF90AF909F908F9008958F929F92AF927D
:10176000BF92CF92DF92EF92FF9260910001709151
:1017700001018091020190910301611571058105BC
:10178000910521F464E279ED8BE597E02DE133EFEB
:1017900041E050E00E94370C49015A019B01AC0125
:1017A000A7EAB1E40E94560C6B017C01ACEEB4EFE9
:1017B000A50194010E94640CC60ED71EE81EF91EF6
:1017C000F7FE06C081E0C81AD108E10880E8F80AEF
:1017D000C0920001D0920101E0920201F092030157
:1017E000C701B6019F77FF90EF90DF90CF90BF9039
:1017F000AF909F908F9008956093000170930101C6
:1018000080930201909303010895DB018F939F93CE
:101810000E94560CBF91AF91A29F800D911DA39F76
:10182000900DB29F900D11240895A1E21A2EAA1BCB
:10183000BB1BFD010DC0AA1FBB1FEE1FFF1FA21780
:10184000B307E407F50720F0A21BB30BE40BF50B7D
:10185000661F771F881F991F1A9469F76095709506
:10186000809590959B01AC01BD01CF010895052E97
:1018700097FB1EF400940E944E0C57FD07D00E9467
:10188000150C07FC03D04EF40C944E0C509540956B
:10189000309521953F4F4F4F5F4F0895909580951C
:1018A000709561957F4F8F4F9F4F08950E94690CEF
:1018B000A59F900DB49F900DA49F800D911D1124A4
:1018C0000895B7FF0C94560C0E94560C821B930B84
:1018D0000895A29FB001B39FC001A39F700D811D09
:1018E0001124911DB29F700D811D1124911D089529
:1018F00097FB072E16F4009407D077FD09D00E94BD
:10190000930C07FC05D03EF4909581959F4F089568
:10191000709561957F4F08950E94690CB7FF0895F7
:10192000821B930B0895AA1BBB1B51E107C0AA1F82
:10193000BB1FA617B70710F0A61BB70B881F991F70
:101940005A95A9F780959095BC01CD010895EE0FA9
:10195000FF1F0590F491E02D099481E090E0F89448
:081960000C94B20CF894FFCFC7
:101968000100000000000000B506B506B5064006F7
:101978003C06390600000000F605B205B005400631
:101988003C06B4005D03000000002A018700B70090
:101998007701E800C600DA00564D4450455F003A2A
:1019A800323A007C005F564D445045000D0A0056FF
:1019B8004D4450565F317C315F564D4450560A00B5
:00000001FF
