:100000000C9462000C948A000C948A000C948A0070
:100010000C948A000C948A000C948A000C948A0038
:100020000C948A000C948A000C948A000C948A0028
:100030000C948A000C948A000C948A000C948A0018
:100040000C94B1070C948A000C947F070C94590708
:100050000C948A000C948A000C948A000C948A00F8
:100060000C948A000C948A000000000023002600F3
:10007000290000000008000201000003040700003E
:1000800000000000000000000000250028002B00F8
:1000900000000000240027002A00040404040404D3
:1000A0000404020202020202030303030303010227
:1000B00004081020408001020408102001020408F6
:1000C0001020FB0711241FBECFEFD8E0DEBFCDBF4D
:1000D00024E0ACE5B1E001C01D92A634B207E1F71F
:1000E00011E0A0E0B1E0E0E1F8E102C005900D927E
:1000F000AC35B107D9F710E0C2E6D0E004C02197D3
:10010000FE010E94FB0BC136D107C9F70E944908C6
:100110000C94060C0C940000AC01DB01E8E8F1E063
:1001200030E020E02417350774F49C9190831196F9
:100130009C911197918312969C91129792832F5FB5
:100140003F4F3396EFCF089520E0DC0160FF03C0FE
:1001500001C02D932D936250E0F77040D0F70895C1
:10016000CF93DF93C0915003D0915103209789F032
:100170008A819B81009749F02D853E85B901660FE4
:10018000771F620F731F0E94A4000C80DD81C02DB9
:10019000EDCFDF91CF910895CF93DF9390E0FC01F5
:1001A000E255FF4F249186569F4FFC01849188238E
:1001B000C1F090E0880F991FFC01E057FF4FC591F7
:1001C000D491FC01EA57FF4FA591B4919FB7F894E1
:1001D0008881E22FE0958E2388838C91E823EC932D
:1001E0009FBFDF91CF910895AF92BF92CF92DF92E0
:1001F000EF92FF920F931F93CF93DF936C017B01DC
:100200008B01040F151FEB015E01AE18BF08C0176C
:10021000D10759F06991D601ED91FC910190F081DF
:10022000E02DC6010995892B79F7C501DF91CF91A2
:100230001F910F91FF90EF90DF90CF90BF90AF9004
:10024000089580E991E00895FC01538D448D252F98
:1002500030E0842F90E0821B930B541710F0CF9660
:10026000089501970895FC01918D828D981761F092
:10027000A28DAE0FBF2FB11D5D968C91928D9F5FA9
:100280009F73928F90E008958FEF9FEF0895FC0188
:10029000918D828D981731F0828DE80FF11D858D3B
:1002A00090E008958FEF9FEF0895FC01918D228DCE
:1002B000892F90E0805C9F4F821B91098F73992753
:1002C000089586E593E00E94550121E0892B09F409
:1002D00020E0822F089580E090E0892B29F00E9491
:1002E000610181110C9400000895FC01A48DA80FF8
:1002F000B92FB11DA35ABF4F2C91848D90E0019668
:100300008F739927848FA689B7892C93A089B18987
:100310008C91837080648C93938D848D981306C028
:100320000288F389E02D80818F7D80830895EF928C
:10033000FF920F931F93CF93DF93EC0181E0888F9F
:100340009B8D8C8D98131AC0E889F989808185FF6F
:1003500015C09FB7F894EE89FF896083E889F98911
:1003600080818370806480839FBF81E090E0DF9113
:10037000CF911F910F91FF90EF900895F62E0B8D66
:1003800010E00F5F1F4F0F731127E02E8C8D8E1121
:100390000CC00FB607FCFACFE889F989808185FF88
:1003A000F5CFCE010E947501F1CFEB8DEC0FFD2F43
:1003B000F11DE35AFF4FF0829FB7F8940B8FEA8943
:1003C000FB8980818062CFCFCF93DF93EC01888D52
:1003D0008823B9F0AA89BB89E889F9898C9185FDC0
:1003E00003C0808186FD0DC00FB607FCF7CF8C914E
:1003F00085FFF2CF808185FFEDCFCE010E94750190
:10040000E9CFDF91CF91089590E0FC01EE58FF4FC6
:100410002491FC01E255FF4F3491FC01E656FF4F59
:10042000E491EE23C1F1222339F02330E9F090F476
:10043000213001F1223011F1F0E0EE0FFF1FE859F9
:10044000FF4FA591B491EC91E32381E090E029F571
:1004500080E008952730A9F02830C9F0243061F7F2
:10046000809180008F7D03C0809180008F77809382
:100470008000E2CF84B58F7784BDDECF84B58F7DD9
:10048000FBCF8091B0008F778093B000D5CF809163
:10049000B0008F7DF9CF80E090E008953FB7F894E9
:1004A0008091630190916401A0916501B091660112
:1004B00026B5A89B05C02F3F19F00196A11DB11DBF
:1004C0003FBFBA2FA92F982F8827BC01CD01620FFB
:1004D000711D811D911D42E0660F771F881F991FB6
:1004E0004A95D1F708958F929F92AF92BF92CF9283
:1004F000DF92EF92FF924B015C010E944E026B0172
:100500007C010E944E026C197D098E099F09683E8C
:10051000734081059105A8F321E0821A9108A10892
:10052000B10888EEC80E83E0D81EE11CF11C8114CE
:100530009104A104B10429F7FF90EF90DF90CF90D0
:10054000BF90AF909F908F9008952FB7F8946091CF
:100550005F017091600180916101909162012FBFF4
:1005600008954F925F926F927F929F92AF92BF9247
:10057000CF92DF92EF92FF920F931F93CF93DF936F
:1005800000D01F92CDB7DEB7F82E80913C04909139
:100590003D04A0913E04B0913F04892B8A2B8B2B04
:1005A000D9F00E944E020091520310915303209102
:1005B000540330915503601B710B820B930B009118
:1005C0003C0410913D0420913E0430913F0460179B
:1005D000710782079307C8F20E944E02609352038C
:1005E000709353038093540390935503E091440414
:1005F000F0914504309759F04091400450914104E6
:1006000060914204709143048F2D0995F82E00915A
:100610005003109151034F2C512C712C612C01155A
:10062000110509F45EC0D8011C96EC901C978091CE
:100630003A0490913B048436910510F41C961C9268
:10064000D801ED91FC91A280B38019821A821B829D
:10065000FF2089F1F8013696D12CC12C219122235B
:1006600019F19280992001F130E050E040E02F5FD5
:100670003F4F4F4F5F4FC301B2010E94800B9B0160
:10068000AC01892D90E0B0E0A0E0BC01CD016F5F2E
:100690007F4F8F4F9F4F0E94800BA1E0B0E0AC0FC7
:1006A000BD1FAC0DBD1D8C93BFEFCB1ADB0A83E0E1
:1006B000C816D10499F6D8011D964D915C911E97EC
:1006C00012966D917C919E012F5F3F4FC801F501FD
:1006D0000995D8011C96EC921C9714960D911C91CB
:1006E0009ECF80914E0390914F038C010F5F1F4F5F
:1006F00010934F0300934E0349978CF10E94A5027B
:100700009B01AC0188EE93E0089FB001099F700D3A
:10071000189F700D1124072E000C880B990BC090A8
:100720004A03D0904B03E0904C03F0904D032C19FA
:100730003D094E095F090E94900B30933B042093C2
:100740003A0410924F0310924E030E94A502609348
:100750004A0370934B0380934C0390934D030F9087
:100760000F900F90DF91CF911F910F91FF90EF901D
:10077000DF90CF90BF90AF909F907F906F905F90F1
:100780004F9008950F931F93CF93DF9320915D01B6
:100790002F5F322F377030935D0120FF2BC020E890
:1007A00031FD2064347009F02062205FFC01EC010F
:1007B000239600E011E06485662329F070E0C8010B
:1007C0000E94CC0B6F5F6187322F369F030E30E0A3
:1007D000311D1124311110C01682662311F06150B1
:1007E00061873196EC17FD0731F7DF91CF911F91AB
:1007F0000F91089520E0D4CF31503683EECF4F9241
:100800005F926F927F928F92AF92BF92CF92DF9260
:10081000EF920F931F93CF93DF933C01EB010E9464
:100820004E02F30127853089621B730B6A30710514
:10083000B0F3F894E881F9817BB170646BB16F7BA0
:100840006BB9CA848F812C2D281B822F2F83BF84E4
:100850004A805B801D850C85DE841F5F0F5FD3940B
:100860009E813885A984EB844181D20120E0C32F89
:10087000522F322F3181442788943111380F08F4D8
:100880003FEF8195889410FD430F4795889411FDA3
:10089000430F4795889412FD430F4795889413FDA5
:1008A000430F4795889414FD430F4795889415FD91
:1008B000430F4795889416FD430F4795889417FD7D
:1008C000430F47958894232F1111242F8C0D422F0D
:1008D000002C7BB900C047FF6BB930812227889478
:1008E00000C000C0002C6BB93111390F00C0002CC2
:1008F0007BB900C046FF6BB908F43FEF919588942F
:1009000000C000C0002C6BB900FD230F00C0002CFC
:100910007BB900C045FF6BB92795889401FD230F73
:1009200000C000C0002C6BB92795889400C0002C33
:100930007BB900C044FF6BB902FD230F2795889453
:1009400000C000C0002C6BB903FD230F00C0002CB9
:100950007BB900C043FF6BB92795889404FD230F32
:1009600000C000C0002C6BB92795889400C0002CF3
:100970007BB900C042FF6BB905FD230F2795889412
:1009800000C000C0002C6BB906FD230F00C0002C76
:100990007BB900C041FF6BB92795889407FD230FF1
:1009A00000C000C0002C6BB92795889400C0002CB3
:1009B0007BB900C040FF6BB9432F0111422F9A0D44
:1009C00000C000C0002C6BB900C000C0002C7BB977
:1009D00000C047FF6BB932812227889400C000C055
:1009E000002C6BB931113C0F00C0002C7BB900C04A
:1009F00046FF6BB908F43FEFEB0DF11D00C000C0DE
:100A0000002C6BB9D0FC230F00C0002C7BB900C0B8
:100A100045FF6BB927958894D1FC230F00C000C017
:100A2000002C6BB92795889400C0002C7BB900C0BE
:100A300044FF6BB9D2FC230F2795889400C000C0F7
:100A4000002C6BB9D3FC230F00C0002C7BB900C075
:100A500043FF6BB927958894D4FC230F00C000C0D6
:100A6000002C6BB92795889400C0002C7BB900C07E
:100A700042FF6BB9D5FC230F2795889400C000C0B6
:100A8000002C6BB9D6FC230F00C0002C7BB900C032
:100A900041FF6BB927958894D7FC230F00C000C095
:100AA000002C6BB92795889400C0002C7BB900C03E
:100AB00040FF6BB9432FD110422FC19500C000C039
:100AC000002C6BB9CE0D00C000C07BB900C047FF41
:100AD0006BB931812227889400C000C0002C6BB90B
:100AE0003111380F00C0002C7BB900C046FF6BB934
:100AF00008F43FEF8195889400C000C0002C6BB9CA
:100B000010FD230F00C0002C7BB900C045FF6BB95E
:100B10002795889411FD230F00C000C0002C6BB9ED
:100B20002795889400C0002C7BB900C044FF6BB9A6
:100B300012FD230F2795889400C000C0002C6BB9CC
:100B400013FD230F00C0002C7BB900C043FF6BB91D
:100B50002795889414FD230F00C000C0002C6BB9AA
:100B60002795889400C0002C7BB900C042FF6BB968
:100B700015FD230F2795889400C000C0002C6BB989
:100B800016FD230F00C0002C7BB900C041FF6BB9DC
:100B90002795889417FD230F00C000C0002C6BB967
:100BA0002795889400C0002C7BB900C040FF6BB92A
:100BB000432F1111422F8C0D00C000C0002C6BB9C7
:100BC000119709F086CE20EE31E0D2010E94E00BB1
:100BD000DC01CB01F4E0B695A79597958795FA953A
:100BE000D1F730E020E0B901EAE94E9E040C611D26
:100BF0005E9E600D711D1124650D711D860F971F7E
:100C0000A11DB11D893E43E09407A105B10508F47B
:100C100034C0885E9340A109B10942E0B695A7951A
:100C2000979587954A95D1F747E0849F080E211D37
:100C3000949F200D311D1124290F311D60915C01FD
:100C400070E0860F971F820F931F40915F015091B4
:100C500060016091610170916201292F3327420F79
:100C6000531F611D711D40935F015093600160939C
:100C700061017093620180935C0178940E944E023E
:100C8000F301708B6787DF91CF911F910F91EF90E8
:100C9000DF90CF90BF90AF908F907F906F905F90DC
:100CA0004F900895569A08950F931F93CF93DF9313
:100CB000CDB7DEB762970FB6F894DEBF0FBECDBFDB
:100CC0008C01F901DC011C968C917A8369835C8329
:100CD0004B835E834D8390819D8791819E87928116
:100CE0009F878130F1F4CE0101960E94C20383E018
:100CF000888B1A8A198AD801ED91FC910484F585B4
:100D0000E02DBE016F5F7F4FC801099562960FB657
:100D1000F894DEBF0FBECDBFDF91CF911F910F9131
:100D200008951C861B861A86198618861F82DFCFB7
:100D30000F931F93CF93DF93CDB7DEB762970FB6B4
:100D4000F894DEBF0FBECDBF8C01F901DC011C960B
:100D50008C917A8369835C834B835E834D8390811E
:100D60009D8791819E8792819F878130E9F4CE0192
:100D700001960E94C203188A1A8A198AD801ED9135
:100D8000FC910484F585E02DBE016F5F7F4FC801A3
:100D9000099562960FB6F894DEBF0FBECDBFDF9106
:100DA000CF911F910F9108951C861B861A86198674
:100DB00018861F82E0CF90E080E00895FC018585D1
:100DC00096850895CF93DF9300D000D000D0CDB7A3
:100DD000DEB7AB011C821D821E82DC01ED91FC910D
:100DE0000190F081E02D19821A821B829E012F5FF3
:100DF0003F4FBE016C5F7F4F099526960FB6F89462
:100E0000DEBF0FBECDBFDF91CF910895FC010190F1
:100E10000020E9F73197AF01481B590BBC0186E56B
:100E200093E00C94F4008F929F92AF92BF920F9335
:100E30001F93CF93DF93CDB7DEB7A1970FB6F8948A
:100E4000DEBF0FBECDBF19A2423008F44AE08E01CA
:100E50000F5D1F4F842E912CB12CA12CA501940164
:100E60000E94900BE62FB901CA01EA30F4F4E05D6C
:100E7000D801EE938D01232B242B252B79F790E0BD
:100E800080E0109719F0CD010E940607A1960FB6D9
:100E9000F894DEBF0FBECDBFDF91CF911F910F91B0
:100EA000BF90AF909F908F900895E95CE1CF0E9432
:100EB000010C1F920F920FB60F9211242F933F93A4
:100EC0004F935F936F937F938F939F93AF93BF9352
:100ED000EF93FF9386E593E00E947501FF91EF91F8
:100EE000BF91AF919F918F917F916F915F914F9142
:100EF0003F912F910F900FBE0F901F9018951F924A
:100F00000F920FB60F9211242F938F939F93EF930D
:100F1000FF93E0916603F09167038081E0916C0399
:100F2000F0916D0382FD1BC0908180916F038F5FF4
:100F30008F7320917003821741F0E0916F03F0E00E
:100F4000EA5AFC4F958F80936F03FF91EF919F9129
:100F50008F912F910F900FBE0F901F901895808149
:100F6000F4CF1F920F920FB60F9211242F933F933D
:100F70008F939F93AF93BF9380915F019091600196
:100F8000A0916101B091620130915E0123E0230FD5
:100F90002D3758F50196A11DB11D20935E01809358
:100FA0005F0190936001A0936101B0936201809111
:100FB000630190916401A0916501B0916601019671
:100FC000A11DB11D8093630190936401A0936501FD
:100FD000B0936601BF91AF919F918F913F912F91F7
:100FE0000F900FBE0F901F90189526E8230F0296C2
:100FF000A11DB11DD2CFE6E5F3E01382128288EE87
:1010000093E0A0E0B0E084839583A683B78386E273
:1010100091E09183808385EC90E09587848784ECD0
:1010200090E09787868780EC90E0918B808B81ECB5
:1010300090E0938B828B82EC90E0958B848B86EC96
:1010400090E0978B868B118E128E138E148EE3EFA9
:10105000F3E0168217821086118612861386148694
:10106000158616861786108A118A128A138A148AA0
:10107000158AE9E3F4E08FEF8083128211821486EF
:1010800013868FEF9FEFDC0187839087A187B2875C
:101090000895CF93DF9300D01F92CDB7DEB7789439
:1010A00084B5826084BD84B5816084BD85B582606D
:1010B00085BD85B5816085BD80916E00816080931E
:1010C0006E00109281008091810082608093810087
:1010D0008091810081608093810080918000816097
:1010E000809380008091B10084608093B1008091F2
:1010F000B00081608093B00080917A00846080931A
:101100007A0080917A00826080937A0080917A00E0
:10111000816080937A0080917A00806880937A0061
:101120001092C100109235041092360410923704C8
:10113000109238041092F5031092F6031092F70300
:101140001092F8030E94A5024B015C017C016B0127
:1011500028EBC20E2BE0D21EE11CF11C0E94A5025E
:10116000681579058A059B0528F0C616D706E80696
:10117000F906A0F768EE73E080E090E00E94730249
:10118000E0916603F091670382E08083E09162035F
:10119000F09163031082E0916403F091650380E1B4
:1011A000808310926E03E0916A03F0916B0386E0F6
:1011B0008083E0916803F09169038081806180837E
:1011C000E0916803F0916903808188608083E091F9
:1011D0006803F0916903808180688083E0916803EF
:1011E000F091690380818F7D80830E94A5026093C6
:1011F000F5037093F6038093F7039093F80384E369
:1012000091E00E9406070E94A5024B015C017C014F
:101210006B013AE0C30ED11CE11CF11C0E94A50237
:10122000681579058A059B0528F0C616D706E806D5
:10123000F906A0F791E09093090480917A01811159
:1012400044C010926C0110926B018FEF80936F017C
:101250008093700180937101809372018093730178
:10126000809374019093750110927701109276012A
:1012700010926E0110926D01809150039091510374
:10128000892B31F489E691E09093510380935003C8
:10129000E0916701F0916801309721F089E691E0D3
:1012A0009583848389E691E0909368018093670138
:1012B000109279011092780184E191E090936A0193
:1012C0008093690181E080937A01569A88E891E0E1
:1012D00090936C0180936B0186E990E09093770185
:1012E0008093760180913C0490913D04A0913E044E
:1012F000B0913F04843C49E09407A105B10520F476
:1013000084EC99E0A0E0B0E080933C0490933D042D
:10131000A0933E04B0933F040E94B0008091390432
:101320000E94B1026AEF70E080E090E00E947302D8
:101330000E94B0008FEF809339048DE789838A8300
:101340008B83BE016F5F7F4F86E990E00E948C0027
:10135000809139040E94B10260ED77E080E090E076
:101360000E94730280E00E94CC0081E00E94CC00C9
:1013700082E00E94CC0083E00E94CC0084E00E94C6
:10138000CC0085E00E94CC0084E1C82E90E0292E9C
:1013900090E0392EFF24FA9426E9D22E34E6E32E8B
:1013A0000E94A502672B682B692B09F4E4C00E94F8
:1013B000A502409084015090850160908601709054
:1013C0008701641575058605970508F433C14090BB
:1013D00084015090850160908601709087019B0187
:1013E000AC01241935094609570929013A013AEF98
:1013F000431651046104710408F4C5C0609384016C
:1014000070938501809386019093870184EF91E02A
:10141000A0E0B0E08093010490930204A093030441
:10142000B09304041092050410920604109207046D
:10143000109208048091F9039091FA03A091FB03A4
:10144000B091FC038093FD039093FE03A093FF03F0
:10145000B09300040E94A5026093F9037093FA030D
:101460008093FB039093FC030E94A5026093F50315
:101470007093F6038093F7039093F8030E94A502FC
:101480002B013C0185E491E00E9406074AE061E0FF
:1014900070E080E090E00E9413078CE491E00E94ED
:1014A00006074AE0C301B2010E9413078EE491E0EF
:1014B0000E9406078091F9039091FA03A091FB0323
:1014C000B091FC03A3019201281B390B4A0B5B0B63
:1014D000CA01B9014AE00E9413078EE491E00E941C
:1014E00006076091F9037091FA038091FB039091D4
:1014F000FC034090FD035090FE036090FF0370904A
:10150000000464197509860997094AE00E941307C7
:1015100080E591E00E9406070E94A5024AE00E9431
:10152000130782E591E00E94060789E591E00E9499
:1015300006070E94A5024B015C012B013C0135E02E
:10154000430E511C611C711C0E94A502681579058F
:101550008A059B0528F04616570668067906A0F707
:101560000E94A5026093F9037093FA038093FB0332
:101570009093FC0308C00E94A502623071058105AA
:10158000910508F014CF80E00E940402019711F445
:101590000F5F1F4F81E00E940402019711F40E5F5C
:1015A0001F4F82E00E940402019711F40C5F1F4F4D
:1015B00083E00E940402019711F4085F1F4F84E04A
:1015C0000E940402019711F4005F1F4F85E00E9402
:1015D0000402019711F4005E1F4F109383010093E2
:1015E00082010E94B0000F3111050CF044C00A3195
:1015F00011050CF06FC00C30110509F45EC01CF52C
:101600000A30110509F454C00CF054C00130110522
:1016100009F44AC0809139040E94B10221143104B6
:1016200009F4BECE0E946101882309F4B9CE0E945C
:101630000000B6CE6093840170938501809386018B
:1016400090938701C4CE0D30110509F43FC00431D9
:10165000110504F3D982DA821B82BE016F5F7F4FCE
:10166000C8014397AC01C49EC001C59E900D1124D2
:101670000E948C00CFCF0E321105E9F13CF4083204
:101680001105B9F13CF2E982EA8219C00233110571
:101690000CF2083311058CF1C801CC97049708F0BF
:1016A000B9CFF982DA8202C0F9821A821B8208C09D
:1016B000E982FBCF1982FA82F9CF19821A82EB8272
:1016C000BE016F5F7F4F86E990E0D2CF1982FA8228
:1016D000FB82F6CF1982DA82DB82BE016F5F7F4F19
:1016E000C8014997DC01CA9EC001CB9E900D112410
:1016F000BFCFF982E0CFF982EACFF9821A82E8CF30
:10170000DB018F939F930E94B20BBF91AF91A29F79
:10171000800D911DA39F900DB29F900D11240895EF
:10172000A1E21A2EAA1BBB1BFD010DC0AA1FBB1FE5
:10173000EE1FFF1FA217B307E407F50720F0A21B57
:10174000B30BE40BF50B661F771F881F991F1A94C4
:1017500069F760957095809590959B01AC01BD01EE
:10176000CF0108950E94BD0BA59F900DB49F900DD1
:10177000A49F800D911D11240895A29FB001B39FD5
:10178000C001A39F700D811D1124911DB29F700D8A
:10179000811D1124911D089597FB072E16F40094C6
:1017A00007D077FD09D00E94E70B07FC05D03EF477
:1017B000909581959F4F0895709561957F4F0895FD
:1017C0000E94BD0BB7FF0895821B930B0895AA1BBF
:1017D000BB1B51E107C0AA1FBB1FA617B70710F01C
:1017E000A61BB70B881F991F5A95A9F7809590954E
:1017F000BC01CD010895EE0FFF1F0590F491E02D7F
:10180000099481E090E0F8940C94060CF894FFCFD2
:1018100000000000570757075707E206DE06DB0601
:1018200000000000980654065206E206DE0621017A
:10183000FF03000000009701F4002401E4015501BA
:1018400033014701564D4450565F317C315F564D50
:101850004450560A00564D4450455F003A323A0013
:0C1860007C005F564D445045000D0A000E
:107E0000112484B714BE81FFF0D085E080938100F7
:107E100082E08093C00088E18093C10086E0809377
:107E2000C20080E18093C4008EE0C9D0259A86E02C
:107E300020E33CEF91E0309385002093840096BBD3
:107E4000B09BFECF1D9AA8958150A9F7CC24DD24C4
:107E500088248394B5E0AB2EA1E19A2EF3E0BF2EE7
:107E6000A2D0813461F49FD0082FAFD0023811F036
:107E7000013811F484E001C083E08DD089C08234E0
:107E800011F484E103C0853419F485E0A6D080C0E4
:107E9000853579F488D0E82EFF2485D0082F10E0AE
:107EA000102F00270E291F29000F111F8ED06801E7
:107EB0006FC0863521F484E090D080E0DECF843638
:107EC00009F040C070D06FD0082F6DD080E0C81688
:107ED00080E7D80618F4F601B7BEE895C0E0D1E017
:107EE00062D089930C17E1F7F0E0CF16F0E7DF06D8
:107EF00018F0F601B7BEE89568D007B600FCFDCFD4
:107F0000A601A0E0B1E02C9130E011968C91119780
:107F100090E0982F8827822B932B1296FA010C0160
:107F200087BEE89511244E5F5F4FF1E0A038BF0790
:107F300051F7F601A7BEE89507B600FCFDCF97BE46
:107F4000E89526C08437B1F42ED02DD0F82E2BD052
:107F50003CD0F601EF2C8F010F5F1F4F84911BD097
:107F6000EA94F801C1F70894C11CD11CFA94CF0C13
:107F7000D11C0EC0853739F428D08EE10CD085E9AC
:107F80000AD08FE07ACF813511F488E018D01DD067
:107F900080E101D065CF982F8091C00085FFFCCF94
:107FA0009093C60008958091C00087FFFCCF809118
:107FB000C00084FD01C0A8958091C6000895E0E648
:107FC000F0E098E1908380830895EDDF803219F02E
:107FD00088E0F5DFFFCF84E1DECF1F93182FE3DFCA
:107FE0001150E9F7F2DF1F91089580E0E8DFEE27F6
:047FF000FF270994CA
:027FFE00040479
:0400000300007E007B
:00000001FF